:1000000015C1000041C100003FC100003DC100001A
:100010003BC1000039C1000037C1000035C10000FC
:1000200033C1000031C100002FC100002DC100000C
:100030002BC1000029C1000027C1000025C100001C
:1000400023C1000021C100001FC100001DC100002C
:100050001BC1000019C1000017C1000068C20000E8
:1000600013C10000CEC5000002C600000DC1000093
:100070000BC1000009C1000007C1000005C100005C
:1000800003C1000001C10000FFC00000FDC000006E
:10009000FBC00000F9C00000F7C00000F5C0000080
:1000A000F3C00000F1C00000EFC00000EDC0000090
:1000B000EBC00000E9C00000E7C00000E5C00000A0
:1000C000E3C00000E1C00000DFC00000DDC00000B0
:1000D000DBC00000D9C00000D7C00000D5C00000C0
:1000E000D3C00000C103C403B303B703BD03FB03C4
:1000F000C803CC03D203D603DA03E003E403E80326
:10010000FB03EE03F203F60300000A0B02090C0DD9
:100110000E080703040100000000000000000000BA
:1001200000000000000000000000000000000000CF
:10013000000000001211100000000000000000008C
:1001400000000000000000000000000000000102AC
:1001500010202008081020401020408002010201D9
:100160000804020101020408102040808040201091
:1001700008040201800402018040201008040201EA
:100180000804020101020408102040800102040852
:10019000102040800505050507050808080802022B
:1001A00002020A0A08080404040401010101010111
:1001B00001010303030303030303040707070C0CF4
:1001C0000C0C0C0C0C0C02020202060606060606BB
:1001D00006060B0B0B0B0B0B0B0B00002000230078
:1001E000260029002C002F0032000001000003012E
:1001F0000601090100002200250028002B002E0026
:100200003100340002010000050108010B0100006B
:100210002100240027002A002D00300033000101B6
:100220000000040107010A01DD01690611241FBE57
:10023000CFEFD1E2DEBFCDBF00E00CBF12E0A0E007
:10024000B2E0E8ECF1E100E00BBF02C007900D92D4
:10025000A232B107D9F722E0A2E2B2E001C01D92BA
:10026000AC3EB207E1F712E0CCE2D2E000E005C01C
:1002700022970109FE010BBFA1D7C832D10780E048
:100280000807B1F746D69EC7BBCE6115710581F050
:10029000DB010D900020E9F7AD0141505109461BEB
:1002A000570BDC01ED91FC910280F381E02D199454
:1002B00080E090E0089561E082E09ED261E083E01A
:1002C0009BD268EE73E080E090E0AAC1089526E03A
:1002D00040E855E260E070E08FE492E032D4EBCF8A
:1002E0008F929F92AF92BF92CF92DF92EF92FF9246
:1002F000CF93DF938FE392E0C2D016D66B017C01DF
:10030000EB018CE392E0BBD04B015C014AE050E092
:10031000B6018FE492E0E6D5C501B40105D64AE006
:1003200050E08FE492E0DED5C937D10514F060E0EB
:1003300001C061E082E0DF91CF91FF90EF90DF900C
:10034000CF90BF90AF909F908F908FC2CF92DF924F
:10035000EF92FF920F931F93C3DF33D1C0904202FD
:10036000D0904302E0904402F09045026C197D0960
:100370008E099F09683E73408105910570F421D173
:100380008B019C01C701B60168517C4F8F4F9F4F75
:10039000601B710B820B930B43D113D1609342020C
:1003A0007093430280934402909345021F910F91F2
:1003B000FF90EF90DF90CF90089520E342E364E355
:1003C0008FE392E00FD025E343E361E38CE392E017
:1003D00009D029E230E04AE250E060E476E082E2CF
:1003E00092E081C0CF93DF93EC01842F68834A832E
:1003F000298361E001D261E08881FED160E08981DA
:10040000FBD161E08A81DF91CF912FC2DF92EF9221
:10041000FF920F931F93CF93DF938C01D12CC7E0F2
:10042000D0E0EE24E394F12C60E0F80180811DD24D
:100430008FE99FE00197F1F700C00000F80181818A
:1004400049D2892B39F097010C2E01C0220F0A9452
:10045000EAF7D22A61E0F801808107D28FE99FE0B4
:100460000197F1F700C000002197F0F68D2DDF9184
:10047000CF911F910F91FF90EF90DF9008950F9310
:100480001F93CF93DF93EC0160E08A81EED18FE977
:100490009FE00197F1F700C00000CE01B7DF082F01
:1004A00010E0102F0027CE01B1DF082B61E08A8118
:1004B000DCD102FD0FC0B80193E0769567959A955F
:1004C000E1F780E090E061D520E030E040E85EE3D5
:1004D000EAD504C060E070E080EC9FE7DF91CF9147
:1004E0001F910F910895CF93DF93EC01842F1B860A
:1004F0001A86198218821E8A1F8A188E198E7F8387
:100500006E834C875D873F872E8761E075D161E000
:100510008E8572D1198A188A1B8A1A8A1D8A1C8AAA
:1005200082E090E099878887DF91CF9108951F92AC
:100530000F920FB60F9211242F933F938F939F9397
:10054000AF93BF938091470290914802A0914902D6
:10055000B0914A023091460223E0230F2D3720F458
:100560000196A11DB11D05C026E8230F0296A11D0D
:10057000B11D209346028093470290934802A093B6
:100580004902B0934A0280914B0290914C02A09193
:100590004D02B0914E020196A11DB11D80934B02F8
:1005A00090934C02A0934D02B0934E02BF91AF9135
:1005B0009F918F913F912F910F900FBE0F901F90A1
:1005C00018952FB7F8946091470270914802809176
:1005D000490290914A022FBF08953FB7F894809145
:1005E0004B0290914C02A0914D02B0914E0226B563
:1005F000A89B05C02F3F19F00196A11DB11D3FBF5B
:100600006627782F892F9A2F620F711D811D911DEA
:1006100042E0660F771F881F991F4A95D1F708950A
:100620008F929F92AF92BF92CF92DF92EF92FF9202
:100630006B017C01D2DF4B015C01C114D104E104E8
:10064000F104E1F070D4C9DF681979098A099B09BE
:10065000683E73408105910580F321E0C21AD108FC
:10066000E108F10888EE880E83E0981EA11CB11CF9
:10067000C114D104E104F10431F7DFCFFF90EF9012
:10068000DF90CF90BF90AF909F908F900895789417
:1006900084B5826084BD84B5816084BD85B5826087
:1006A00085BD85B5816085BDEEE6F0E08081816025
:1006B0008083E1E8F0E01082808182608083808125
:1006C00081608083E0E8F0E0808181608083E1EBFD
:1006D000F0E0808184608083E0EBF0E080818160E5
:1006E0008083E1E9F0E080818260808380818160A5
:1006F0008083E0E9F0E0808181608083E1EAF0E0DE
:10070000808182608083808181608083E0EAF0E084
:10071000808181608083E1E2F1E08081826080837A
:10072000808181608083E0E2F1E08081816080836C
:10073000EAE7F0E08081846080838081826080834A
:100740008081816080838081806880831092C10075
:10075000089590E0FC013197E231F10508F04BC0BB
:10076000EE58FF4F25C5809180008F7703C08091A0
:1007700080008F7D80938000089580918000877F26
:10078000F9CF84B58F7702C084B58F7D84BD08957D
:100790008091B0008F7703C08091B0008F7D8093EF
:1007A000B0000895809190008F7707C080919000ED
:1007B0008F7D03C080919000877F80939000089583
:1007C0008091A0008F7707C08091A0008F7D03C02B
:1007D0008091A000877F8093A000089580912001E0
:1007E0008F7707C0809120018F7D03C08091200109
:1007F000877F809320010895CF93DF9390E0FC01E1
:10080000E25BFE4F2491FC01EC56FE4F849188235D
:1008100049F190E0880F991FFC01E25FFD4FA5911F
:10082000B4918C509E4FFC01C591D4919FB761113A
:1008300008C0F8948C91209582238C938881822320
:100840000AC0623051F4F8948C91322F3095832392
:100850008C938881822B888304C0F8948C91822B9E
:100860008C939FBFDF91CF9108950F931F93CF93E8
:10087000DF931F92CDB7DEB7282F30E0F901E85F94
:10088000FE4F8491F901E25BFE4F1491F901EC56A1
:10089000FE4F04910023C1F0882319F0698359DFCA
:1008A0006981E02FF0E0EE0FFF1FEC50FE4FA591A5
:1008B000B4919FB7F8948C91611103C01095812376
:1008C00001C0812B8C939FBF0F90DF91CF911F911F
:1008D0000F910895CF93DF93282F30E0F901E85F5F
:1008E000FE4F8491F901E25BFE4FD491F901EC5681
:1008F000FE4FC491CC2389F081112BDFEC2FF0E067
:10090000EE0FFF1FE652FE4FA591B4912C912D23BF
:1009100081E090E021F480E002C080E090E0DF918F
:10092000CF910895FC01818D228D90E0805C9F4FD6
:10093000821B91098F7399270895FC01918D828DF7
:10094000981731F0828DE80FF11D858D90E00895A4
:100950008FEF9FEF0895FC01918D828D981761F0C4
:10096000828DDF01A80FB11D5D968C91928D9F5FE6
:100970009F73928F90E008958FEF9FEF089580E628
:1009800096E0892B39F080E090E0892B19F098D11E
:10099000811125C080E090E0892B41F080E090E05B
:1009A000892B21F00E94000081111CC080E090E0A2
:1009B000892B41F080E090E0892B21F00E9400001B
:1009C000811113C080E090E0892BA1F080E090E0DD
:1009D000892B81F00E94000081110AC008950E94B5
:1009E0000000D8CF0E940000E1CF0E940000EACFB3
:1009F0000C9400000895FC01848DDF01A80FB11D47
:100A0000A35ABF4F2C91848D90E001968F73992744
:100A1000848FA689B7892C93A089B1898C91806431
:100A20008C93938D848D981306C00288F389E02DF2
:100A300080818F7D80830895CF93DF93EC01888D33
:100A40008823C1F0EA89FB89808185FD05C0A889DA
:100A5000B9898C9186FD0EC00FB607FCF5CF808159
:100A600085FFF2CFA889B9898C9185FFEDCFCE01A2
:100A7000C2DFE8CFDF91CF910895CF92DF92FF924E
:100A80000F931F93CF93DF931F92CDB7DEB76C0107
:100A900081E0D60158968C9358975B969C915B9712
:100AA0005C968C915C97981307C05096ED91FC91E1
:100AB0005197808185FD2DC0F601038D10E00F5FF9
:100AC0001F4F0F731127F02EF601848DF81210C0FE
:100AD0000FB607FCF9CFD6015096ED91FC915197D6
:100AE000808185FFF1CFC601698385DF6981ECCF05
:100AF000838DE80FF11DE35AFF4F6083D6015B96AB
:100B00000C935B975296ED91FC9153978081806294
:100B10000CC0D6015696ED91FC9157976083509684
:100B2000ED91FC91519780818064808381E090E019
:100B30000F90DF91CF911F910F91FF90DF90CF9099
:100B40000895BF92CF92DF92EF92FF92CF93DF93FF
:100B5000EC016A017B01B22EE889F98982E0808389
:100B6000411581EE58076105710599F060E079E063
:100B70008DE390E0A7019601F9D221503109410996
:100B800051095695479537952795211580E13807E6
:100B900090F0E889F989108260E874E88EE190E0CD
:100BA000A7019601E3D22150310941095109569517
:100BB000479537952795EC85FD853083EE85FF8534
:100BC0002083188EEC89FD89B082EA89FB898081B7
:100BD00080618083EA89FB89808188608083EA89DB
:100BE000FB89808180688083EA89FB8980818F7D91
:100BF0008083DF91CF91FF90EF90DF90CF90BF90F7
:100C000008951F920F920FB60F9211240BB60F92F8
:100C10002F938F939F93EF93FF93E0915F02F09157
:100C200060028081E0916502F091660282FD12C04F
:100C30009081809168028F5F8F7320916902821783
:100C400051F0E0916802F0E0E15BFD4F958F8093F9
:100C5000680201C08081FF91EF919F918F912F9148
:100C60000F900BBE0F900FBE0F901F9018951F9204
:100C70000F920FB60F9211240BB60F922F933F9342
:100C80004F935F936F937F938F939F93AF93BF9394
:100C9000EF93FF938FE492E0AEDEFF91EF91BF916F
:100CA000AF919F918F917F916F915F914F913F9104
:100CB0002F910F900BBE0F900FBE0F901F901895A5
:100CC0008FE492E02FDE21E0892B09F420E0822FCF
:100CD0000895109252021092510288EE93E0A0E023
:100CE000B0E08093530290935402A0935502B093C6
:100CF000560284E092E09093500280934F0285EC7C
:100D000090E090935C0280935B0284EC90E090937F
:100D10005E0280935D0280EC90E09093600280938D
:100D20005F0281EC90E0909362028093610282EC1A
:100D300090E0909364028093630286EC90E090933D
:100D40006602809365021092680210926902109206
:100D50006A0210926B020895CF92DF92EF92FF9297
:100D60000F931F93CF93DF937C016A01EB0100E0A7
:100D700010E00C151D0571F06991D701ED91FC9102
:100D80000190F081E02DC7011995892B19F00F5FB3
:100D90001F4FEFCFC801DF91CF911F910F91FF90AF
:100DA000EF90DF90CF900895DC01ED91FC910190E0
:100DB000F081E02D199460E172E067CA8F929F92F2
:100DC000AF92BF92DF92EF92FF920F931F93CF9358
:100DD000DF93CDB7DEB7A1970FB6F894DEBF0FBE95
:100DE000CDBF7C01F42FD52ECB0119A2223008F4FF
:100DF0002AE08E010F5D1F4F822E912CA12CB12C69
:100E00006F2F7D2DA5019401B1D1F22FD32ECA01F0
:100E1000015011096A3014F4E0E301C0E7E3E60F82
:100E2000D801EC93232B242B252B51F7B801C701B4
:100E30002CDAA1960FB6F894DEBF0FBECDBFDF91BE
:100E4000CF911F910F91FF90EF90DF90BF90AF90E7
:100E50009F908F900895CF92DF92EF92FF920F9321
:100E60001F93CF93DF93EC016A017B0121153105BC
:100E700079F4E881F9810190F081E02D642FDF9110
:100E8000CF911F910F91FF90EF90DF90CF90199429
:100E90002A303105D9F477FF18C06DE285DF8C0167
:100EA00044275527BA014C195D096E097F092AE0CC
:100EB000CE0184DF800F911FDF91CF911F910F91A1
:100EC000FF90EF90DF90CF9008952AE0B701A60140
:100ED000CE01DF91CF911F910F91FF90EF90DF90A6
:100EE000CF906CCF0F931F93CF93DF93EC019A01B8
:100EF000AB01662757FD6095762FADDF8C01CE01E3
:100F00005ADF800F911FDF91CF911F910F910895AC
:100F10000895BDDBFDDFDBD9CFEBD4E017DA2097F6
:100F2000E9F32DDDFBCF089504D06894B111B5C06D
:100F3000089598D088F09F5790F0B92F9927B7510E
:100F4000A0F0D1F0660F771F881F991F1AF0BA958D
:100F5000C9F712C0B13081F09FD0B1E008959CC0B4
:100F6000672F782F8827B85F39F0B93FCCF3869583
:100F700077956795B395D9F73EF4909580957095E0
:100F800061957F4F8F4F9F4F0895E89409C097FB5D
:100F90003EF490958095709561957F4F8F4F9F4F50
:100FA0009923A9F0F92F96E9BB279395F695879594
:100FB00077956795B795F111F8CFFAF4BB0F11F457
:100FC00060FF1BC06F5F7F4F8F4F9F4F16C08823FE
:100FD00011F096E911C0772321F09EE8872F762F34
:100FE00005C0662371F096E8862F70E060E02AF075
:100FF0009A95660F771F881FDAF7880F9695879561
:1010000097F9089597F99F6780E870E060E0089588
:101010009FEF80EC089500240A9416161706180610
:101020000906089500240A941216130614060506EC
:101030000895092E0394000C11F4882352F0BB0F7D
:1010400040F4BF2B11F460FF04C06F5F7F4F8F4FE0
:101050009F4F089557FD9058440F551F59F05F3F1B
:1010600071F04795880F97FB991F61F09F3F79F0CA
:1010700087950895121613061406551FF2CF46954C
:10108000F1DF08C0161617061806991FF1CF8695CE
:101090007105610508940895E894BB2766277727B2
:1010A000CB0197F908950BD0C4CFB5DF28F0BADF94
:1010B00018F0952309F0A6CFABCF1124EECFCADFED
:1010C000A0F3959FD1F3950F50E0551F629FF0015B
:1010D000729FBB27F00DB11D639FAA27F00DB11DB4
:1010E000AA1F649F6627B00DA11D661F829F22273D
:1010F000B00DA11D621F739FB00DA11D621F839FC4
:10110000A00D611D221F749F3327A00D611D231F99
:10111000849F600D211D822F762F6A2F11249F57E7
:1011200050408AF0E1F088234AF0EE0FFF1FBB1F0A
:10113000661F771F881F91505040A9F79E3F5105A9
:1011400070F060CFAACF5F3FECF3983EDCF386955A
:1011500077956795B795F795E7959F5FC1F7FE2B54
:10116000880F911D9695879597F90895A1E21A2EFB
:10117000AA1BBB1BFD010DC0AA1FBB1FEE1FFF1F3B
:10118000A217B307E407F50720F0A21BB30BE40B8B
:10119000F50B661F771F881F991F1A9469F76095D2
:1011A0007095809590959B01AC01BD01CF0108958C
:1011B000EE0FFF1F0590F491E02D19940790F69122
:0811C000E02D1994F894FFCF13
:1011C800000000003D05AC069204AB049D041C051C
:1011D8000D0A006E616E00696E66006F7666002EFD
:0211E800000005
:00000001FF
